{
  "contractName": "EditTodo",
  "abi": [
    {
      "anonymous": false,
      "inputs": [
        {
          "indexed": true,
          "internalType": "address",
          "name": "user",
          "type": "address"
        },
        {
          "indexed": true,
          "internalType": "uint256",
          "name": "todoId",
          "type": "uint256"
        },
        {
          "indexed": false,
          "internalType": "string",
          "name": "title",
          "type": "string"
        },
        {
          "indexed": false,
          "internalType": "string",
          "name": "description",
          "type": "string"
        },
        {
          "indexed": false,
          "internalType": "uint256",
          "name": "startDate",
          "type": "uint256"
        },
        {
          "indexed": false,
          "internalType": "uint256",
          "name": "endDate",
          "type": "uint256"
        },
        {
          "indexed": false,
          "internalType": "enum EditTodo.Status",
          "name": "status",
          "type": "uint8"
        }
      ],
      "name": "TodoCreated",
      "type": "event"
    },
    {
      "anonymous": false,
      "inputs": [
        {
          "indexed": true,
          "internalType": "address",
          "name": "user",
          "type": "address"
        },
        {
          "indexed": true,
          "internalType": "uint256",
          "name": "todoId",
          "type": "uint256"
        }
      ],
      "name": "TodoDeleted",
      "type": "event"
    },
    {
      "anonymous": false,
      "inputs": [
        {
          "indexed": true,
          "internalType": "address",
          "name": "user",
          "type": "address"
        },
        {
          "indexed": true,
          "internalType": "uint256",
          "name": "todoId",
          "type": "uint256"
        },
        {
          "indexed": false,
          "internalType": "string",
          "name": "title",
          "type": "string"
        },
        {
          "indexed": false,
          "internalType": "string",
          "name": "description",
          "type": "string"
        },
        {
          "indexed": false,
          "internalType": "uint256",
          "name": "startDate",
          "type": "uint256"
        },
        {
          "indexed": false,
          "internalType": "uint256",
          "name": "endDate",
          "type": "uint256"
        },
        {
          "indexed": false,
          "internalType": "enum EditTodo.Status",
          "name": "status",
          "type": "uint8"
        }
      ],
      "name": "TodoUpdated",
      "type": "event"
    },
    {
      "inputs": [
        {
          "internalType": "address",
          "name": "",
          "type": "address"
        }
      ],
      "name": "TodoId",
      "outputs": [
        {
          "internalType": "uint256",
          "name": "",
          "type": "uint256"
        }
      ],
      "stateMutability": "view",
      "type": "function"
    },
    {
      "inputs": [
        {
          "internalType": "address",
          "name": "",
          "type": "address"
        },
        {
          "internalType": "uint256",
          "name": "",
          "type": "uint256"
        }
      ],
      "name": "getId",
      "outputs": [
        {
          "internalType": "uint256",
          "name": "",
          "type": "uint256"
        }
      ],
      "stateMutability": "view",
      "type": "function"
    },
    {
      "inputs": [
        {
          "internalType": "address",
          "name": "",
          "type": "address"
        },
        {
          "internalType": "uint256",
          "name": "",
          "type": "uint256"
        }
      ],
      "name": "todos",
      "outputs": [
        {
          "internalType": "string",
          "name": "title",
          "type": "string"
        },
        {
          "internalType": "string",
          "name": "description",
          "type": "string"
        },
        {
          "internalType": "uint256",
          "name": "startDate",
          "type": "uint256"
        },
        {
          "internalType": "uint256",
          "name": "endDate",
          "type": "uint256"
        },
        {
          "internalType": "enum EditTodo.Status",
          "name": "status",
          "type": "uint8"
        }
      ],
      "stateMutability": "view",
      "type": "function"
    },
    {
      "inputs": [
        {
          "internalType": "string",
          "name": "title",
          "type": "string"
        },
        {
          "internalType": "string",
          "name": "description",
          "type": "string"
        },
        {
          "internalType": "uint256",
          "name": "startDate",
          "type": "uint256"
        },
        {
          "internalType": "uint256",
          "name": "endDate",
          "type": "uint256"
        },
        {
          "internalType": "enum EditTodo.Status",
          "name": "status",
          "type": "uint8"
        }
      ],
      "name": "createTodo",
      "outputs": [
        {
          "internalType": "uint256",
          "name": "",
          "type": "uint256"
        },
        {
          "internalType": "string",
          "name": "",
          "type": "string"
        },
        {
          "internalType": "string",
          "name": "",
          "type": "string"
        },
        {
          "internalType": "uint256",
          "name": "",
          "type": "uint256"
        },
        {
          "internalType": "uint256",
          "name": "",
          "type": "uint256"
        },
        {
          "internalType": "enum EditTodo.Status",
          "name": "",
          "type": "uint8"
        }
      ],
      "stateMutability": "nonpayable",
      "type": "function"
    },
    {
      "inputs": [
        {
          "internalType": "uint256",
          "name": "todoId",
          "type": "uint256"
        }
      ],
      "name": "deleteTodo",
      "outputs": [],
      "stateMutability": "nonpayable",
      "type": "function"
    },
    {
      "inputs": [
        {
          "internalType": "address",
          "name": "user",
          "type": "address"
        }
      ],
      "name": "getTodo",
      "outputs": [
        {
          "components": [
            {
              "internalType": "string",
              "name": "title",
              "type": "string"
            },
            {
              "internalType": "string",
              "name": "description",
              "type": "string"
            },
            {
              "internalType": "uint256",
              "name": "startDate",
              "type": "uint256"
            },
            {
              "internalType": "uint256",
              "name": "endDate",
              "type": "uint256"
            },
            {
              "internalType": "enum EditTodo.Status",
              "name": "status",
              "type": "uint8"
            }
          ],
          "internalType": "struct EditTodo.Todo[]",
          "name": "",
          "type": "tuple[]"
        },
        {
          "internalType": "uint256[]",
          "name": "",
          "type": "uint256[]"
        }
      ],
      "stateMutability": "view",
      "type": "function"
    },
    {
      "inputs": [
        {
          "internalType": "uint256",
          "name": "tokenId",
          "type": "uint256"
        },
        {
          "internalType": "string",
          "name": "title",
          "type": "string"
        },
        {
          "internalType": "string",
          "name": "description",
          "type": "string"
        },
        {
          "internalType": "uint256",
          "name": "startDate",
          "type": "uint256"
        },
        {
          "internalType": "uint256",
          "name": "endDate",
          "type": "uint256"
        },
        {
          "internalType": "enum EditTodo.Status",
          "name": "status",
          "type": "uint8"
        }
      ],
      "name": "updateTodo",
      "outputs": [],
      "stateMutability": "nonpayable",
      "type": "function"
    }
  ],
  "bytecode": "0x608060405234801561001057600080fd5b50611b10806100206000396000f3fe608060405234801561001057600080fd5b506004361061007d5760003560e01c8063b74c7a091161005b578063b74c7a0914610103578063c5d3e11d14610138578063cb5ba8f014610168578063f2273c21146101845761007d565b8063428c1889146100825780636e3c6738146100b6578063af3116d8146100d2575b600080fd5b61009c60048036038101906100979190610ddf565b6101b4565b6040516100ad959493929190610f35565b60405180910390f35b6100d060048036038101906100cb9190610f96565b610314565b005b6100ec60048036038101906100e79190610fc3565b610446565b6040516100fa929190611246565b60405180910390f35b61011d600480360381019061011891906113d7565b610778565b60405161012f9695949392919061148a565b60405180910390f35b610152600480360381019061014d9190610ddf565b6109c0565b60405161015f91906114f9565b60405180910390f35b610182600480360381019061017d9190611514565b6109f1565b005b61019e60048036038101906101999190610fc3565b610c38565b6040516101ab91906114f9565b60405180910390f35b6000602052816000526040600020602052806000526040600020600091509150508060000180546101e490611608565b80601f016020809104026020016040519081016040528092919081815260200182805461021090611608565b801561025d5780601f106102325761010080835404028352916020019161025d565b820191906000526020600020905b81548152906001019060200180831161024057829003601f168201915b50505050509080600101805461027290611608565b80601f016020809104026020016040519081016040528092919081815260200182805461029e90611608565b80156102eb5780601f106102c0576101008083540402835291602001916102eb565b820191906000526020600020905b8154815290600101906020018083116102ce57829003601f168201915b5050505050908060020154908060030154908060040160009054906101000a900460ff16905085565b6000803373ffffffffffffffffffffffffffffffffffffffff1673ffffffffffffffffffffffffffffffffffffffff1681526020019081526020016000206000828152602001908152602001600020600080820160006103749190610c99565b6001820160006103849190610c99565b600282016000905560038201600090556004820160006101000a81549060ff02191690555050600160003373ffffffffffffffffffffffffffffffffffffffff1673ffffffffffffffffffffffffffffffffffffffff16815260200190815260200160002060008154809291906103fa90611668565b9190505550803373ffffffffffffffffffffffffffffffffffffffff167f24d84cd6bd5cc33dafa556a214e7d9e1b4fccca98b3e7d1413909e4710f02ff360405160405180910390a350565b6060806000600260008573ffffffffffffffffffffffffffffffffffffffff1673ffffffffffffffffffffffffffffffffffffffff16815260200190815260200160002090506000818054905067ffffffffffffffff8111156104ac576104ab611287565b5b6040519080825280602002602001820160405280156104e557816020015b6104d2610cd9565b8152602001906001900390816104ca5790505b50905060005b828054905081101561071857600083828154811061050c5761050b611691565b5b906000526020600020015490506000803373ffffffffffffffffffffffffffffffffffffffff1673ffffffffffffffffffffffffffffffffffffffff16815260200190815260200160002060008281526020019081526020016000206040518060a001604052908160008201805461058390611608565b80601f01602080910402602001604051908101604052809291908181526020018280546105af90611608565b80156105fc5780601f106105d1576101008083540402835291602001916105fc565b820191906000526020600020905b8154815290600101906020018083116105df57829003601f168201915b5050505050815260200160018201805461061590611608565b80601f016020809104026020016040519081016040528092919081815260200182805461064190611608565b801561068e5780601f106106635761010080835404028352916020019161068e565b820191906000526020600020905b81548152906001019060200180831161067157829003601f168201915b5050505050815260200160028201548152602001600382015481526020016004820160009054906101000a900460ff1660028111156106d0576106cf610ebe565b5b60028111156106e2576106e1610ebe565b5b815250508383815181106106f9576106f8611691565b5b6020026020010181905250508080610710906116c0565b9150506104eb565b5080828080548060200260200160405190810160405280929190818152602001828054801561076657602002820191906000526020600020905b815481526020019060010190808311610752575b50505050509050935093505050915091565b6000606080600080600080610791338d8d8d8d8d610c50565b90506040518060a001604052808d81526020018c81526020018b81526020018a81526020018960028111156107c9576107c8610ebe565b5b8152506000803373ffffffffffffffffffffffffffffffffffffffff1673ffffffffffffffffffffffffffffffffffffffff1681526020019081526020016000206000838152602001908152602001600020600082015181600001908161083091906118b4565b50602082015181600101908161084691906118b4565b50604082015181600201556060820151816003015560808201518160040160006101000a81548160ff0219169083600281111561088657610885610ebe565b5b0217905550905050600160003373ffffffffffffffffffffffffffffffffffffffff1673ffffffffffffffffffffffffffffffffffffffff16815260200190815260200160002060008154809291906108de906116c0565b9190505550803373ffffffffffffffffffffffffffffffffffffffff167ffbab56ff7d8179d8b15cae11ed4dbcad2c8f87d13ea6690772dc5742e47d0d168e8e8e8e8e604051610932959493929190610f35565b60405180910390a3600260003373ffffffffffffffffffffffffffffffffffffffff1673ffffffffffffffffffffffffffffffffffffffff168152602001908152602001600020819080600181540180825580915050600190039060005260206000200160009091909190915055808c8c8c8c8c965096509650965096509650509550955095509550955095565b600260205281600052604060002081815481106109dc57600080fd5b90600052602060002001600091509150505481565b846000803373ffffffffffffffffffffffffffffffffffffffff1673ffffffffffffffffffffffffffffffffffffffff16815260200190815260200160002060008881526020019081526020016000206000019081610a5091906118b4565b50836000803373ffffffffffffffffffffffffffffffffffffffff1673ffffffffffffffffffffffffffffffffffffffff16815260200190815260200160002060008881526020019081526020016000206001019081610ab091906118b4565b50826000803373ffffffffffffffffffffffffffffffffffffffff1673ffffffffffffffffffffffffffffffffffffffff168152602001908152602001600020600088815260200190815260200160002060020181905550816000803373ffffffffffffffffffffffffffffffffffffffff1673ffffffffffffffffffffffffffffffffffffffff168152602001908152602001600020600088815260200190815260200160002060030181905550806000803373ffffffffffffffffffffffffffffffffffffffff1673ffffffffffffffffffffffffffffffffffffffff168152602001908152602001600020600088815260200190815260200160002060040160006101000a81548160ff02191690836002811115610bd457610bd3610ebe565b5b0217905550853373ffffffffffffffffffffffffffffffffffffffff167fed9f180174725c8888bb904b6645cecc9b0c5b2eadbd8e0675c57e3aeac3d2798787878787604051610c28959493929190610f35565b60405180910390a3505050505050565b60016020528060005260406000206000915090505481565b60008087878787878742604051602001610c709796959493929190611a61565b6040516020818303038152906040528051906020012090508060001c9150509695505050505050565b508054610ca590611608565b6000825580601f10610cb75750610cd6565b601f016020900490600052602060002090810190610cd59190610d1a565b5b50565b6040518060a001604052806060815260200160608152602001600081526020016000815260200160006002811115610d1457610d13610ebe565b5b81525090565b5b80821115610d33576000816000905550600101610d1b565b5090565b6000604051905090565b600080fd5b600080fd5b600073ffffffffffffffffffffffffffffffffffffffff82169050919050565b6000610d7682610d4b565b9050919050565b610d8681610d6b565b8114610d9157600080fd5b50565b600081359050610da381610d7d565b92915050565b6000819050919050565b610dbc81610da9565b8114610dc757600080fd5b50565b600081359050610dd981610db3565b92915050565b60008060408385031215610df657610df5610d41565b5b6000610e0485828601610d94565b9250506020610e1585828601610dca565b9150509250929050565b600081519050919050565b600082825260208201905092915050565b60005b83811015610e59578082015181840152602081019050610e3e565b60008484015250505050565b6000601f19601f8301169050919050565b6000610e8182610e1f565b610e8b8185610e2a565b9350610e9b818560208601610e3b565b610ea481610e65565b840191505092915050565b610eb881610da9565b82525050565b7f4e487b7100000000000000000000000000000000000000000000000000000000600052602160045260246000fd5b60038110610efe57610efd610ebe565b5b50565b6000819050610f0f82610eed565b919050565b6000610f1f82610f01565b9050919050565b610f2f81610f14565b82525050565b600060a0820190508181036000830152610f4f8188610e76565b90508181036020830152610f638187610e76565b9050610f726040830186610eaf565b610f7f6060830185610eaf565b610f8c6080830184610f26565b9695505050505050565b600060208284031215610fac57610fab610d41565b5b6000610fba84828501610dca565b91505092915050565b600060208284031215610fd957610fd8610d41565b5b6000610fe784828501610d94565b91505092915050565b600081519050919050565b600082825260208201905092915050565b6000819050602082019050919050565b600082825260208201905092915050565b600061103882610e1f565b611042818561101c565b9350611052818560208601610e3b565b61105b81610e65565b840191505092915050565b61106f81610da9565b82525050565b61107e81610f14565b82525050565b600060a08301600083015184820360008601526110a1828261102d565b915050602083015184820360208601526110bb828261102d565b91505060408301516110d06040860182611066565b5060608301516110e36060860182611066565b5060808301516110f66080860182611075565b508091505092915050565b600061110d8383611084565b905092915050565b6000602082019050919050565b600061112d82610ff0565b6111378185610ffb565b9350836020820285016111498561100c565b8060005b8581101561118557848403895281516111668582611101565b945061117183611115565b925060208a0199505060018101905061114d565b50829750879550505050505092915050565b600081519050919050565b600082825260208201905092915050565b6000819050602082019050919050565b60006111cf8383611066565b60208301905092915050565b6000602082019050919050565b60006111f382611197565b6111fd81856111a2565b9350611208836111b3565b8060005b8381101561123957815161122088826111c3565b975061122b836111db565b92505060018101905061120c565b5085935050505092915050565b600060408201905081810360008301526112608185611122565b9050818103602083015261127481846111e8565b90509392505050565b600080fd5b600080fd5b7f4e487b7100000000000000000000000000000000000000000000000000000000600052604160045260246000fd5b6112bf82610e65565b810181811067ffffffffffffffff821117156112de576112dd611287565b5b80604052505050565b60006112f1610d37565b90506112fd82826112b6565b919050565b600067ffffffffffffffff82111561131d5761131c611287565b5b61132682610e65565b9050602081019050919050565b82818337600083830152505050565b600061135561135084611302565b6112e7565b90508281526020810184848401111561137157611370611282565b5b61137c848285611333565b509392505050565b600082601f8301126113995761139861127d565b5b81356113a9848260208601611342565b91505092915050565b600381106113bf57600080fd5b50565b6000813590506113d1816113b2565b92915050565b600080600080600060a086880312156113f3576113f2610d41565b5b600086013567ffffffffffffffff81111561141157611410610d46565b5b61141d88828901611384565b955050602086013567ffffffffffffffff81111561143e5761143d610d46565b5b61144a88828901611384565b945050604061145b88828901610dca565b935050606061146c88828901610dca565b925050608061147d888289016113c2565b9150509295509295909350565b600060c08201905061149f6000830189610eaf565b81810360208301526114b18188610e76565b905081810360408301526114c58187610e76565b90506114d46060830186610eaf565b6114e16080830185610eaf565b6114ee60a0830184610f26565b979650505050505050565b600060208201905061150e6000830184610eaf565b92915050565b60008060008060008060c0878903121561153157611530610d41565b5b600061153f89828a01610dca565b965050602087013567ffffffffffffffff8111156115605761155f610d46565b5b61156c89828a01611384565b955050604087013567ffffffffffffffff81111561158d5761158c610d46565b5b61159989828a01611384565b94505060606115aa89828a01610dca565b93505060806115bb89828a01610dca565b92505060a06115cc89828a016113c2565b9150509295509295509295565b7f4e487b7100000000000000000000000000000000000000000000000000000000600052602260045260246000fd5b6000600282049050600182168061162057607f821691505b602082108103611633576116326115d9565b5b50919050565b7f4e487b7100000000000000000000000000000000000000000000000000000000600052601160045260246000fd5b600061167382610da9565b91506000820361168657611685611639565b5b600182039050919050565b7f4e487b7100000000000000000000000000000000000000000000000000000000600052603260045260246000fd5b60006116cb82610da9565b91507fffffffffffffffffffffffffffffffffffffffffffffffffffffffffffffffff82036116fd576116fc611639565b5b600182019050919050565b60008190508160005260206000209050919050565b60006020601f8301049050919050565b600082821b905092915050565b60006008830261176a7fffffffffffffffffffffffffffffffffffffffffffffffffffffffffffffffff8261172d565b611774868361172d565b95508019841693508086168417925050509392505050565b6000819050919050565b60006117b16117ac6117a784610da9565b61178c565b610da9565b9050919050565b6000819050919050565b6117cb83611796565b6117df6117d7826117b8565b84845461173a565b825550505050565b600090565b6117f46117e7565b6117ff8184846117c2565b505050565b5b81811015611823576118186000826117ec565b600181019050611805565b5050565b601f8211156118685761183981611708565b6118428461171d565b81016020851015611851578190505b61186561185d8561171d565b830182611804565b50505b505050565b600082821c905092915050565b600061188b6000198460080261186d565b1980831691505092915050565b60006118a4838361187a565b9150826002028217905092915050565b6118bd82610e1f565b67ffffffffffffffff8111156118d6576118d5611287565b5b6118e08254611608565b6118eb828285611827565b600060209050601f83116001811461191e576000841561190c578287015190505b6119168582611898565b86555061197e565b601f19841661192c86611708565b60005b828110156119545784890151825560018201915060208501945060208101905061192f565b86831015611971578489015161196d601f89168261187a565b8355505b6001600288020188555050505b505050505050565b60008160601b9050919050565b600061199e82611986565b9050919050565b60006119b082611993565b9050919050565b6119c86119c382610d6b565b6119a5565b82525050565b600081905092915050565b60006119e482610e1f565b6119ee81856119ce565b93506119fe818560208601610e3b565b80840191505092915050565b6000819050919050565b611a25611a2082610da9565b611a0a565b82525050565b60008160f81b9050919050565b6000611a4382611a2b565b9050919050565b611a5b611a5682610f14565b611a38565b82525050565b6000611a6d828a6119b7565b601482019150611a7d82896119d9565b9150611a8982886119d9565b9150611a958287611a14565b602082019150611aa58286611a14565b602082019150611ab58285611a4a565b600182019150611ac58284611a14565b6020820191508190509897505050505050505056fea2646970667358221220f2a557d69a8b1ba90d57d9c9f11f31749fd8dbdd4ffa3e440c6bd6fa0901153964736f6c63430008120033",
  "immutableReferences": {},
  "source": "// SPDX-License-Identifier: MIT\r\npragma solidity ^0.8.0;\r\n\r\ncontract EditTodo{\r\n\r\n    enum Status{\r\n        todo,\r\n        doing,\r\n        done\r\n    }\r\n\r\n    struct Todo{\r\n        string title;\r\n        string description;\r\n        uint startDate;\r\n        uint endDate;\r\n        Status status;\r\n    }\r\n\r\n   \r\n    mapping(address => mapping(uint256 => Todo)) public todos;\r\n    mapping(address => uint256) public TodoId;\r\n    mapping(address => uint256[]) public getId;\r\n\r\n    \r\n    event TodoCreated(address indexed user, uint256 indexed todoId, string title, string description, uint256 startDate, uint256 endDate, Status status);\r\n    event TodoDeleted(address indexed user,uint256 indexed  todoId);\r\n    event TodoUpdated(address indexed user, uint256 indexed todoId, string title, string description, uint256 startDate,uint256 endDate, Status status);\r\n    \r\n    function generateTodoId(address user, string memory title, string memory description, uint256 startDate, uint256 endDate, Status status) internal view returns (uint256) {\r\n        bytes32 hash = keccak256(abi.encodePacked(user, title, description, startDate, endDate, status, block.timestamp));\r\n        return uint256(hash);\r\n    }\r\n\r\n   \r\n    function createTodo(string memory title, string memory description, uint256 startDate, uint256 endDate, Status status) external returns(uint256,string memory,string memory,uint256,uint256,Status){\r\n   \r\n        uint256 newTodoId = generateTodoId(msg.sender, title, description, startDate, endDate, status);\r\n\r\n        todos[msg.sender][newTodoId] = Todo({\r\n            title: title,\r\n            description: description,\r\n            startDate: startDate,\r\n            endDate: endDate,\r\n            status: status\r\n        });\r\n\r\n        TodoId[msg.sender]++;\r\n\r\n        emit TodoCreated(msg.sender, newTodoId, title, description, startDate, endDate, status);\r\n        getId[msg.sender].push(newTodoId);\r\n        return(newTodoId,title,description,startDate,endDate,status);\r\n    }\r\n    \r\n    function deleteTodo(uint256 todoId) external {\r\n        // require(todoId == TodoId[msg.sender], \"Todo does not exist\");\r\n\r\n        delete todos[msg.sender][todoId];\r\n        TodoId[msg.sender]--;\r\n\r\n        emit TodoDeleted(msg.sender, todoId);\r\n    }\r\n    \r\n\r\n    function getTodo(address user) external view returns (Todo[] memory,uint256[] memory) {\r\n        uint256[] storage tokenIDs = getId[user];\r\n        Todo[] memory userTodos = new Todo[](tokenIDs.length);\r\n\r\n        for (uint256 i = 0; i < tokenIDs.length; i++) {\r\n            uint256 tokenID = tokenIDs[i];\r\n            userTodos[i] = todos[msg.sender][tokenID];\r\n        }\r\n\r\n        return (userTodos,tokenIDs);\r\n    }\r\n\r\n    function updateTodo(uint256 tokenId,string memory title, string memory description, uint startDate, uint endDate, Status status) external {\r\n        \r\n        todos[msg.sender][tokenId].title = title;\r\n        todos[msg.sender][tokenId].description = description;\r\n        todos[msg.sender][tokenId].startDate = startDate;\r\n        todos[msg.sender][tokenId].endDate = endDate;\r\n        todos[msg.sender][tokenId].status = status;\r\n\r\n        emit TodoUpdated(msg.sender, tokenId, title, description, startDate, endDate, status);\r\n    }\r\n   \r\n\r\n}",
  "sourcePath": "C:\\Users\\matilda\\Documents\\ethereum_todo_dapp\\final-Dapp\\truffle\\contracts\\EditTodo.sol",
  "compiler": {
    "name": "solc",
    "version": "0.8.18+commit.87f61d96.Emscripten.clang"
  },
  "schemaVersion": "3.4.16",
  "updatedAt": "2024-03-21T02:17:43.036Z",
  "devdoc": {
    "kind": "dev",
    "methods": {},
    "version": 1
  },
  "userdoc": {
    "kind": "user",
    "methods": {},
    "version": 1
  }
}