{
  "contractName": "TodoEd",
  "abi": [
    {
      "anonymous": false,
      "inputs": [
        {
          "indexed": true,
          "internalType": "address",
          "name": "user",
          "type": "address"
        },
        {
          "indexed": true,
          "internalType": "uint256",
          "name": "todoId",
          "type": "uint256"
        },
        {
          "indexed": false,
          "internalType": "string",
          "name": "title",
          "type": "string"
        },
        {
          "indexed": false,
          "internalType": "string",
          "name": "description",
          "type": "string"
        },
        {
          "indexed": false,
          "internalType": "uint256",
          "name": "startDate",
          "type": "uint256"
        },
        {
          "indexed": false,
          "internalType": "uint256",
          "name": "endDate",
          "type": "uint256"
        },
        {
          "indexed": false,
          "internalType": "enum TodoEd.Status",
          "name": "status",
          "type": "uint8"
        }
      ],
      "name": "TodoCreated",
      "type": "event"
    },
    {
      "anonymous": false,
      "inputs": [
        {
          "indexed": true,
          "internalType": "address",
          "name": "user",
          "type": "address"
        },
        {
          "indexed": true,
          "internalType": "uint256",
          "name": "todoId",
          "type": "uint256"
        }
      ],
      "name": "TodoDeleted",
      "type": "event"
    },
    {
      "anonymous": false,
      "inputs": [
        {
          "indexed": true,
          "internalType": "address",
          "name": "user",
          "type": "address"
        },
        {
          "indexed": true,
          "internalType": "uint256",
          "name": "todoId",
          "type": "uint256"
        },
        {
          "indexed": false,
          "internalType": "string",
          "name": "title",
          "type": "string"
        },
        {
          "indexed": false,
          "internalType": "string",
          "name": "description",
          "type": "string"
        },
        {
          "indexed": false,
          "internalType": "uint256",
          "name": "startDate",
          "type": "uint256"
        },
        {
          "indexed": false,
          "internalType": "uint256",
          "name": "endDate",
          "type": "uint256"
        },
        {
          "indexed": false,
          "internalType": "enum TodoEd.Status",
          "name": "status",
          "type": "uint8"
        }
      ],
      "name": "TodoUpdated",
      "type": "event"
    },
    {
      "inputs": [
        {
          "internalType": "address",
          "name": "",
          "type": "address"
        }
      ],
      "name": "TodoId",
      "outputs": [
        {
          "internalType": "uint256",
          "name": "",
          "type": "uint256"
        }
      ],
      "stateMutability": "view",
      "type": "function"
    },
    {
      "inputs": [
        {
          "internalType": "address",
          "name": "",
          "type": "address"
        },
        {
          "internalType": "uint256",
          "name": "",
          "type": "uint256"
        }
      ],
      "name": "getId",
      "outputs": [
        {
          "internalType": "uint256",
          "name": "",
          "type": "uint256"
        }
      ],
      "stateMutability": "view",
      "type": "function"
    },
    {
      "inputs": [
        {
          "internalType": "address",
          "name": "",
          "type": "address"
        },
        {
          "internalType": "uint256",
          "name": "",
          "type": "uint256"
        }
      ],
      "name": "todos",
      "outputs": [
        {
          "internalType": "string",
          "name": "title",
          "type": "string"
        },
        {
          "internalType": "string",
          "name": "description",
          "type": "string"
        },
        {
          "internalType": "uint256",
          "name": "startDate",
          "type": "uint256"
        },
        {
          "internalType": "uint256",
          "name": "endDate",
          "type": "uint256"
        },
        {
          "internalType": "enum TodoEd.Status",
          "name": "status",
          "type": "uint8"
        }
      ],
      "stateMutability": "view",
      "type": "function"
    },
    {
      "inputs": [
        {
          "internalType": "string",
          "name": "title",
          "type": "string"
        },
        {
          "internalType": "string",
          "name": "description",
          "type": "string"
        },
        {
          "internalType": "uint256",
          "name": "startDate",
          "type": "uint256"
        },
        {
          "internalType": "uint256",
          "name": "endDate",
          "type": "uint256"
        },
        {
          "internalType": "enum TodoEd.Status",
          "name": "status",
          "type": "uint8"
        }
      ],
      "name": "createTodo",
      "outputs": [
        {
          "internalType": "uint256",
          "name": "",
          "type": "uint256"
        },
        {
          "internalType": "string",
          "name": "",
          "type": "string"
        },
        {
          "internalType": "string",
          "name": "",
          "type": "string"
        },
        {
          "internalType": "uint256",
          "name": "",
          "type": "uint256"
        },
        {
          "internalType": "uint256",
          "name": "",
          "type": "uint256"
        },
        {
          "internalType": "enum TodoEd.Status",
          "name": "",
          "type": "uint8"
        }
      ],
      "stateMutability": "nonpayable",
      "type": "function"
    },
    {
      "inputs": [
        {
          "internalType": "uint256",
          "name": "todoId",
          "type": "uint256"
        }
      ],
      "name": "deleteTodo",
      "outputs": [],
      "stateMutability": "nonpayable",
      "type": "function"
    },
    {
      "inputs": [
        {
          "internalType": "address",
          "name": "user",
          "type": "address"
        }
      ],
      "name": "getTodo",
      "outputs": [
        {
          "components": [
            {
              "internalType": "string",
              "name": "title",
              "type": "string"
            },
            {
              "internalType": "string",
              "name": "description",
              "type": "string"
            },
            {
              "internalType": "uint256",
              "name": "startDate",
              "type": "uint256"
            },
            {
              "internalType": "uint256",
              "name": "endDate",
              "type": "uint256"
            },
            {
              "internalType": "enum TodoEd.Status",
              "name": "status",
              "type": "uint8"
            }
          ],
          "internalType": "struct TodoEd.Todo[]",
          "name": "",
          "type": "tuple[]"
        }
      ],
      "stateMutability": "view",
      "type": "function"
    },
    {
      "inputs": [
        {
          "internalType": "uint256",
          "name": "tokenId",
          "type": "uint256"
        },
        {
          "internalType": "string",
          "name": "title",
          "type": "string"
        },
        {
          "internalType": "string",
          "name": "description",
          "type": "string"
        },
        {
          "internalType": "uint256",
          "name": "startDate",
          "type": "uint256"
        },
        {
          "internalType": "uint256",
          "name": "endDate",
          "type": "uint256"
        },
        {
          "internalType": "enum TodoEd.Status",
          "name": "status",
          "type": "uint8"
        }
      ],
      "name": "updateTodo",
      "outputs": [],
      "stateMutability": "nonpayable",
      "type": "function"
    }
  ],
  "bytecode": "0x608060405234801561001057600080fd5b506119f5806100206000396000f3fe608060405234801561001057600080fd5b506004361061007d5760003560e01c8063b74c7a091161005b578063b74c7a0914610102578063c5d3e11d14610137578063cb5ba8f014610167578063f2273c21146101835761007d565b8063428c1889146100825780636e3c6738146100b6578063af3116d8146100d2575b600080fd5b61009c60048036038101906100979190610d88565b6101b3565b6040516100ad959493929190610ede565b60405180910390f35b6100d060048036038101906100cb9190610f3f565b610313565b005b6100ec60048036038101906100e79190610f6c565b610445565b6040516100f99190611140565b60405180910390f35b61011c600480360381019061011791906112bc565b610721565b60405161012e9695949392919061136f565b60405180910390f35b610151600480360381019061014c9190610d88565b610969565b60405161015e91906113de565b60405180910390f35b610181600480360381019061017c91906113f9565b61099a565b005b61019d60048036038101906101989190610f6c565b610be1565b6040516101aa91906113de565b60405180910390f35b6000602052816000526040600020602052806000526040600020600091509150508060000180546101e3906114ed565b80601f016020809104026020016040519081016040528092919081815260200182805461020f906114ed565b801561025c5780601f106102315761010080835404028352916020019161025c565b820191906000526020600020905b81548152906001019060200180831161023f57829003601f168201915b505050505090806001018054610271906114ed565b80601f016020809104026020016040519081016040528092919081815260200182805461029d906114ed565b80156102ea5780601f106102bf576101008083540402835291602001916102ea565b820191906000526020600020905b8154815290600101906020018083116102cd57829003601f168201915b5050505050908060020154908060030154908060040160009054906101000a900460ff16905085565b6000803373ffffffffffffffffffffffffffffffffffffffff1673ffffffffffffffffffffffffffffffffffffffff1681526020019081526020016000206000828152602001908152602001600020600080820160006103739190610c42565b6001820160006103839190610c42565b600282016000905560038201600090556004820160006101000a81549060ff02191690555050600160003373ffffffffffffffffffffffffffffffffffffffff1673ffffffffffffffffffffffffffffffffffffffff16815260200190815260200160002060008154809291906103f99061154d565b9190505550803373ffffffffffffffffffffffffffffffffffffffff167f24d84cd6bd5cc33dafa556a214e7d9e1b4fccca98b3e7d1413909e4710f02ff360405160405180910390a350565b60606000600260008473ffffffffffffffffffffffffffffffffffffffff1673ffffffffffffffffffffffffffffffffffffffff16815260200190815260200160002090506000818054905067ffffffffffffffff8111156104aa576104a961116c565b5b6040519080825280602002602001820160405280156104e357816020015b6104d0610c82565b8152602001906001900390816104c85790505b50905060005b828054905081101561071657600083828154811061050a57610509611576565b5b906000526020600020015490506000803373ffffffffffffffffffffffffffffffffffffffff1673ffffffffffffffffffffffffffffffffffffffff16815260200190815260200160002060008281526020019081526020016000206040518060a0016040529081600082018054610581906114ed565b80601f01602080910402602001604051908101604052809291908181526020018280546105ad906114ed565b80156105fa5780601f106105cf576101008083540402835291602001916105fa565b820191906000526020600020905b8154815290600101906020018083116105dd57829003601f168201915b50505050508152602001600182018054610613906114ed565b80601f016020809104026020016040519081016040528092919081815260200182805461063f906114ed565b801561068c5780601f106106615761010080835404028352916020019161068c565b820191906000526020600020905b81548152906001019060200180831161066f57829003601f168201915b5050505050815260200160028201548152602001600382015481526020016004820160009054906101000a900460ff1660028111156106ce576106cd610e67565b5b60028111156106e0576106df610e67565b5b815250508383815181106106f7576106f6611576565b5b602002602001018190525050808061070e906115a5565b9150506104e9565b508092505050919050565b600060608060008060008061073a338d8d8d8d8d610bf9565b90506040518060a001604052808d81526020018c81526020018b81526020018a815260200189600281111561077257610771610e67565b5b8152506000803373ffffffffffffffffffffffffffffffffffffffff1673ffffffffffffffffffffffffffffffffffffffff168152602001908152602001600020600083815260200190815260200160002060008201518160000190816107d99190611799565b5060208201518160010190816107ef9190611799565b50604082015181600201556060820151816003015560808201518160040160006101000a81548160ff0219169083600281111561082f5761082e610e67565b5b0217905550905050600160003373ffffffffffffffffffffffffffffffffffffffff1673ffffffffffffffffffffffffffffffffffffffff1681526020019081526020016000206000815480929190610887906115a5565b9190505550803373ffffffffffffffffffffffffffffffffffffffff167ffbab56ff7d8179d8b15cae11ed4dbcad2c8f87d13ea6690772dc5742e47d0d168e8e8e8e8e6040516108db959493929190610ede565b60405180910390a3600260003373ffffffffffffffffffffffffffffffffffffffff1673ffffffffffffffffffffffffffffffffffffffff168152602001908152602001600020819080600181540180825580915050600190039060005260206000200160009091909190915055808c8c8c8c8c965096509650965096509650509550955095509550955095565b6002602052816000526040600020818154811061098557600080fd5b90600052602060002001600091509150505481565b846000803373ffffffffffffffffffffffffffffffffffffffff1673ffffffffffffffffffffffffffffffffffffffff168152602001908152602001600020600088815260200190815260200160002060000190816109f99190611799565b50836000803373ffffffffffffffffffffffffffffffffffffffff1673ffffffffffffffffffffffffffffffffffffffff16815260200190815260200160002060008881526020019081526020016000206001019081610a599190611799565b50826000803373ffffffffffffffffffffffffffffffffffffffff1673ffffffffffffffffffffffffffffffffffffffff168152602001908152602001600020600088815260200190815260200160002060020181905550816000803373ffffffffffffffffffffffffffffffffffffffff1673ffffffffffffffffffffffffffffffffffffffff168152602001908152602001600020600088815260200190815260200160002060030181905550806000803373ffffffffffffffffffffffffffffffffffffffff1673ffffffffffffffffffffffffffffffffffffffff168152602001908152602001600020600088815260200190815260200160002060040160006101000a81548160ff02191690836002811115610b7d57610b7c610e67565b5b0217905550853373ffffffffffffffffffffffffffffffffffffffff167fed9f180174725c8888bb904b6645cecc9b0c5b2eadbd8e0675c57e3aeac3d2798787878787604051610bd1959493929190610ede565b60405180910390a3505050505050565b60016020528060005260406000206000915090505481565b60008087878787878742604051602001610c199796959493929190611946565b6040516020818303038152906040528051906020012090508060001c9150509695505050505050565b508054610c4e906114ed565b6000825580601f10610c605750610c7f565b601f016020900490600052602060002090810190610c7e9190610cc3565b5b50565b6040518060a001604052806060815260200160608152602001600081526020016000815260200160006002811115610cbd57610cbc610e67565b5b81525090565b5b80821115610cdc576000816000905550600101610cc4565b5090565b6000604051905090565b600080fd5b600080fd5b600073ffffffffffffffffffffffffffffffffffffffff82169050919050565b6000610d1f82610cf4565b9050919050565b610d2f81610d14565b8114610d3a57600080fd5b50565b600081359050610d4c81610d26565b92915050565b6000819050919050565b610d6581610d52565b8114610d7057600080fd5b50565b600081359050610d8281610d5c565b92915050565b60008060408385031215610d9f57610d9e610cea565b5b6000610dad85828601610d3d565b9250506020610dbe85828601610d73565b9150509250929050565b600081519050919050565b600082825260208201905092915050565b60005b83811015610e02578082015181840152602081019050610de7565b60008484015250505050565b6000601f19601f8301169050919050565b6000610e2a82610dc8565b610e348185610dd3565b9350610e44818560208601610de4565b610e4d81610e0e565b840191505092915050565b610e6181610d52565b82525050565b7f4e487b7100000000000000000000000000000000000000000000000000000000600052602160045260246000fd5b60038110610ea757610ea6610e67565b5b50565b6000819050610eb882610e96565b919050565b6000610ec882610eaa565b9050919050565b610ed881610ebd565b82525050565b600060a0820190508181036000830152610ef88188610e1f565b90508181036020830152610f0c8187610e1f565b9050610f1b6040830186610e58565b610f286060830185610e58565b610f356080830184610ecf565b9695505050505050565b600060208284031215610f5557610f54610cea565b5b6000610f6384828501610d73565b91505092915050565b600060208284031215610f8257610f81610cea565b5b6000610f9084828501610d3d565b91505092915050565b600081519050919050565b600082825260208201905092915050565b6000819050602082019050919050565b600082825260208201905092915050565b6000610fe182610dc8565b610feb8185610fc5565b9350610ffb818560208601610de4565b61100481610e0e565b840191505092915050565b61101881610d52565b82525050565b61102781610ebd565b82525050565b600060a083016000830151848203600086015261104a8282610fd6565b915050602083015184820360208601526110648282610fd6565b9150506040830151611079604086018261100f565b50606083015161108c606086018261100f565b50608083015161109f608086018261101e565b508091505092915050565b60006110b6838361102d565b905092915050565b6000602082019050919050565b60006110d682610f99565b6110e08185610fa4565b9350836020820285016110f285610fb5565b8060005b8581101561112e578484038952815161110f85826110aa565b945061111a836110be565b925060208a019950506001810190506110f6565b50829750879550505050505092915050565b6000602082019050818103600083015261115a81846110cb565b905092915050565b600080fd5b600080fd5b7f4e487b7100000000000000000000000000000000000000000000000000000000600052604160045260246000fd5b6111a482610e0e565b810181811067ffffffffffffffff821117156111c3576111c261116c565b5b80604052505050565b60006111d6610ce0565b90506111e2828261119b565b919050565b600067ffffffffffffffff8211156112025761120161116c565b5b61120b82610e0e565b9050602081019050919050565b82818337600083830152505050565b600061123a611235846111e7565b6111cc565b90508281526020810184848401111561125657611255611167565b5b611261848285611218565b509392505050565b600082601f83011261127e5761127d611162565b5b813561128e848260208601611227565b91505092915050565b600381106112a457600080fd5b50565b6000813590506112b681611297565b92915050565b600080600080600060a086880312156112d8576112d7610cea565b5b600086013567ffffffffffffffff8111156112f6576112f5610cef565b5b61130288828901611269565b955050602086013567ffffffffffffffff81111561132357611322610cef565b5b61132f88828901611269565b945050604061134088828901610d73565b935050606061135188828901610d73565b9250506080611362888289016112a7565b9150509295509295909350565b600060c0820190506113846000830189610e58565b81810360208301526113968188610e1f565b905081810360408301526113aa8187610e1f565b90506113b96060830186610e58565b6113c66080830185610e58565b6113d360a0830184610ecf565b979650505050505050565b60006020820190506113f36000830184610e58565b92915050565b60008060008060008060c0878903121561141657611415610cea565b5b600061142489828a01610d73565b965050602087013567ffffffffffffffff81111561144557611444610cef565b5b61145189828a01611269565b955050604087013567ffffffffffffffff81111561147257611471610cef565b5b61147e89828a01611269565b945050606061148f89828a01610d73565b93505060806114a089828a01610d73565b92505060a06114b189828a016112a7565b9150509295509295509295565b7f4e487b7100000000000000000000000000000000000000000000000000000000600052602260045260246000fd5b6000600282049050600182168061150557607f821691505b602082108103611518576115176114be565b5b50919050565b7f4e487b7100000000000000000000000000000000000000000000000000000000600052601160045260246000fd5b600061155882610d52565b91506000820361156b5761156a61151e565b5b600182039050919050565b7f4e487b7100000000000000000000000000000000000000000000000000000000600052603260045260246000fd5b60006115b082610d52565b91507fffffffffffffffffffffffffffffffffffffffffffffffffffffffffffffffff82036115e2576115e161151e565b5b600182019050919050565b60008190508160005260206000209050919050565b60006020601f8301049050919050565b600082821b905092915050565b60006008830261164f7fffffffffffffffffffffffffffffffffffffffffffffffffffffffffffffffff82611612565b6116598683611612565b95508019841693508086168417925050509392505050565b6000819050919050565b600061169661169161168c84610d52565b611671565b610d52565b9050919050565b6000819050919050565b6116b08361167b565b6116c46116bc8261169d565b84845461161f565b825550505050565b600090565b6116d96116cc565b6116e48184846116a7565b505050565b5b81811015611708576116fd6000826116d1565b6001810190506116ea565b5050565b601f82111561174d5761171e816115ed565b61172784611602565b81016020851015611736578190505b61174a61174285611602565b8301826116e9565b50505b505050565b600082821c905092915050565b600061177060001984600802611752565b1980831691505092915050565b6000611789838361175f565b9150826002028217905092915050565b6117a282610dc8565b67ffffffffffffffff8111156117bb576117ba61116c565b5b6117c582546114ed565b6117d082828561170c565b600060209050601f83116001811461180357600084156117f1578287015190505b6117fb858261177d565b865550611863565b601f198416611811866115ed565b60005b8281101561183957848901518255600182019150602085019450602081019050611814565b868310156118565784890151611852601f89168261175f565b8355505b6001600288020188555050505b505050505050565b60008160601b9050919050565b60006118838261186b565b9050919050565b600061189582611878565b9050919050565b6118ad6118a882610d14565b61188a565b82525050565b600081905092915050565b60006118c982610dc8565b6118d381856118b3565b93506118e3818560208601610de4565b80840191505092915050565b6000819050919050565b61190a61190582610d52565b6118ef565b82525050565b60008160f81b9050919050565b600061192882611910565b9050919050565b61194061193b82610ebd565b61191d565b82525050565b6000611952828a61189c565b60148201915061196282896118be565b915061196e82886118be565b915061197a82876118f9565b60208201915061198a82866118f9565b60208201915061199a828561192f565b6001820191506119aa82846118f9565b6020820191508190509897505050505050505056fea2646970667358221220372b40169e394e87efaf91310d5925304e5b82b38c6560269ca417b45de6097264736f6c63430008120033",
  "immutableReferences": {},
  "source": "// SPDX-License-Identifier: MIT\r\npragma solidity ^0.8.0;\r\n\r\ncontract TodoEd{\r\n\r\n    enum Status{\r\n        todo,\r\n        doing,\r\n        done\r\n    }\r\n\r\n    struct Todo{\r\n        string title;\r\n        string description;\r\n        uint startDate;\r\n        uint endDate;\r\n        Status status;\r\n    }\r\n\r\n   \r\n    mapping(address => mapping(uint256 => Todo)) public todos;\r\n    mapping(address => uint256) public TodoId;\r\n    mapping(address => uint256[]) public getId;\r\n\r\n    \r\n    event TodoCreated(address indexed user, uint256 indexed todoId, string title, string description, uint256 startDate, uint256 endDate, Status status);\r\n    event TodoDeleted(address indexed user,uint256 indexed  todoId);\r\n    event TodoUpdated(address indexed user, uint256 indexed todoId, string title, string description, uint256 startDate,uint256 endDate, Status status);\r\n    \r\n    function generateTodoId(address user, string memory title, string memory description, uint256 startDate, uint256 endDate, Status status) internal view returns (uint256) {\r\n        bytes32 hash = keccak256(abi.encodePacked(user, title, description, startDate, endDate, status, block.timestamp));\r\n        return uint256(hash);\r\n    }\r\n\r\n   \r\n    function createTodo(string memory title, string memory description, uint256 startDate, uint256 endDate, Status status) external returns(uint256,string memory,string memory,uint256,uint256,Status){\r\n   \r\n        uint256 newTodoId = generateTodoId(msg.sender, title, description, startDate, endDate, status);\r\n\r\n        todos[msg.sender][newTodoId] = Todo({\r\n            title: title,\r\n            description: description,\r\n            startDate: startDate,\r\n            endDate: endDate,\r\n            status: status\r\n        });\r\n\r\n        TodoId[msg.sender]++;\r\n\r\n        emit TodoCreated(msg.sender, newTodoId, title, description, startDate, endDate, status);\r\n        getId[msg.sender].push(newTodoId);\r\n        return(newTodoId,title,description,startDate,endDate,status);\r\n    }\r\n    \r\n    function deleteTodo(uint256 todoId) external {\r\n        // require(todoId == TodoId[msg.sender], \"Todo does not exist\");\r\n\r\n        delete todos[msg.sender][todoId];\r\n        TodoId[msg.sender]--;\r\n\r\n        emit TodoDeleted(msg.sender, todoId);\r\n    }\r\n    \r\n\r\n    function getTodo(address user) external view returns (Todo[] memory) {\r\n        uint256[] storage tokenIDs = getId[user];\r\n        Todo[] memory userTodos = new Todo[](tokenIDs.length);\r\n\r\n        for (uint256 i = 0; i < tokenIDs.length; i++) {\r\n            uint256 tokenID = tokenIDs[i];\r\n            userTodos[i] = todos[msg.sender][tokenID];\r\n        }\r\n\r\n        return userTodos;\r\n    }\r\n\r\n    function updateTodo(uint256 tokenId,string memory title, string memory description, uint startDate, uint endDate, Status status) external {\r\n        \r\n        todos[msg.sender][tokenId].title = title;\r\n        todos[msg.sender][tokenId].description = description;\r\n        todos[msg.sender][tokenId].startDate = startDate;\r\n        todos[msg.sender][tokenId].endDate = endDate;\r\n        todos[msg.sender][tokenId].status = status;\r\n\r\n        emit TodoUpdated(msg.sender, tokenId, title, description, startDate, endDate, status);\r\n    }\r\n   \r\n\r\n}",
  "sourcePath": "C:\\Users\\matilda\\Documents\\ethereum_todo_dapp\\final-Dapp\\truffle\\contracts\\TodoEd.sol",
  "compiler": {
    "name": "solc",
    "version": "0.8.18+commit.87f61d96.Emscripten.clang"
  },
  "schemaVersion": "3.4.16",
  "updatedAt": "2024-03-20T23:43:11.816Z",
  "devdoc": {
    "kind": "dev",
    "methods": {},
    "version": 1
  },
  "userdoc": {
    "kind": "user",
    "methods": {},
    "version": 1
  }
}