{
  "contractName": "TodoList",
  "abi": [
    {
      "anonymous": false,
      "inputs": [
        {
          "indexed": true,
          "internalType": "address",
          "name": "user",
          "type": "address"
        },
        {
          "indexed": true,
          "internalType": "uint256",
          "name": "todoId",
          "type": "uint256"
        },
        {
          "indexed": false,
          "internalType": "string",
          "name": "title",
          "type": "string"
        },
        {
          "indexed": false,
          "internalType": "string",
          "name": "description",
          "type": "string"
        },
        {
          "indexed": false,
          "internalType": "uint256",
          "name": "startDate",
          "type": "uint256"
        },
        {
          "indexed": false,
          "internalType": "uint256",
          "name": "endDate",
          "type": "uint256"
        },
        {
          "indexed": false,
          "internalType": "enum TodoList.Status",
          "name": "status",
          "type": "uint8"
        }
      ],
      "name": "TodoCreated",
      "type": "event"
    },
    {
      "anonymous": false,
      "inputs": [
        {
          "indexed": true,
          "internalType": "address",
          "name": "user",
          "type": "address"
        },
        {
          "indexed": true,
          "internalType": "uint256",
          "name": "todoId",
          "type": "uint256"
        }
      ],
      "name": "TodoDeleted",
      "type": "event"
    },
    {
      "anonymous": false,
      "inputs": [
        {
          "indexed": true,
          "internalType": "address",
          "name": "user",
          "type": "address"
        },
        {
          "indexed": true,
          "internalType": "uint256",
          "name": "todoId",
          "type": "uint256"
        },
        {
          "indexed": false,
          "internalType": "string",
          "name": "title",
          "type": "string"
        },
        {
          "indexed": false,
          "internalType": "string",
          "name": "description",
          "type": "string"
        },
        {
          "indexed": false,
          "internalType": "uint256",
          "name": "startDate",
          "type": "uint256"
        },
        {
          "indexed": false,
          "internalType": "uint256",
          "name": "endDate",
          "type": "uint256"
        },
        {
          "indexed": false,
          "internalType": "enum TodoList.Status",
          "name": "status",
          "type": "uint8"
        }
      ],
      "name": "TodoUpdated",
      "type": "event"
    },
    {
      "inputs": [
        {
          "internalType": "address",
          "name": "",
          "type": "address"
        }
      ],
      "name": "TodoId",
      "outputs": [
        {
          "internalType": "uint256",
          "name": "",
          "type": "uint256"
        }
      ],
      "stateMutability": "view",
      "type": "function",
      "constant": true
    },
    {
      "inputs": [
        {
          "internalType": "address",
          "name": "",
          "type": "address"
        },
        {
          "internalType": "uint256",
          "name": "",
          "type": "uint256"
        }
      ],
      "name": "getId",
      "outputs": [
        {
          "internalType": "uint256",
          "name": "",
          "type": "uint256"
        }
      ],
      "stateMutability": "view",
      "type": "function",
      "constant": true
    },
    {
      "inputs": [
        {
          "internalType": "address",
          "name": "",
          "type": "address"
        },
        {
          "internalType": "uint256",
          "name": "",
          "type": "uint256"
        }
      ],
      "name": "todos",
      "outputs": [
        {
          "internalType": "string",
          "name": "title",
          "type": "string"
        },
        {
          "internalType": "string",
          "name": "description",
          "type": "string"
        },
        {
          "internalType": "uint256",
          "name": "startDate",
          "type": "uint256"
        },
        {
          "internalType": "uint256",
          "name": "endDate",
          "type": "uint256"
        },
        {
          "internalType": "enum TodoList.Status",
          "name": "status",
          "type": "uint8"
        }
      ],
      "stateMutability": "view",
      "type": "function",
      "constant": true
    },
    {
      "inputs": [
        {
          "internalType": "string",
          "name": "title",
          "type": "string"
        },
        {
          "internalType": "string",
          "name": "description",
          "type": "string"
        },
        {
          "internalType": "uint256",
          "name": "startDate",
          "type": "uint256"
        },
        {
          "internalType": "uint256",
          "name": "endDate",
          "type": "uint256"
        },
        {
          "internalType": "enum TodoList.Status",
          "name": "status",
          "type": "uint8"
        }
      ],
      "name": "createTodo",
      "outputs": [],
      "stateMutability": "nonpayable",
      "type": "function"
    },
    {
      "inputs": [
        {
          "internalType": "uint256",
          "name": "todoId",
          "type": "uint256"
        }
      ],
      "name": "deleteTodo",
      "outputs": [],
      "stateMutability": "nonpayable",
      "type": "function"
    },
    {
      "inputs": [
        {
          "internalType": "address",
          "name": "user",
          "type": "address"
        }
      ],
      "name": "getTodo",
      "outputs": [
        {
          "components": [
            {
              "internalType": "string",
              "name": "title",
              "type": "string"
            },
            {
              "internalType": "string",
              "name": "description",
              "type": "string"
            },
            {
              "internalType": "uint256",
              "name": "startDate",
              "type": "uint256"
            },
            {
              "internalType": "uint256",
              "name": "endDate",
              "type": "uint256"
            },
            {
              "internalType": "enum TodoList.Status",
              "name": "status",
              "type": "uint8"
            }
          ],
          "internalType": "struct TodoList.Todo[]",
          "name": "",
          "type": "tuple[]"
        }
      ],
      "stateMutability": "view",
      "type": "function",
      "constant": true
    },
    {
      "inputs": [
        {
          "internalType": "uint256",
          "name": "tokenId",
          "type": "uint256"
        },
        {
          "internalType": "string",
          "name": "title",
          "type": "string"
        },
        {
          "internalType": "string",
          "name": "description",
          "type": "string"
        },
        {
          "internalType": "uint256",
          "name": "startDate",
          "type": "uint256"
        },
        {
          "internalType": "uint256",
          "name": "endDate",
          "type": "uint256"
        },
        {
          "internalType": "enum TodoList.Status",
          "name": "status",
          "type": "uint8"
        }
      ],
      "name": "updateTodo",
      "outputs": [],
      "stateMutability": "nonpayable",
      "type": "function"
    }
  ],
  "bytecode": "0x608060405234801561001057600080fd5b50611a39806100206000396000f3fe608060405234801561001057600080fd5b506004361061007d5760003560e01c8063b74c7a091161005b578063b74c7a0914610102578063c5d3e11d1461011e578063cb5ba8f01461014e578063f2273c211461016a5761007d565b8063428c1889146100825780636e3c6738146100b6578063af3116d8146100d2575b600080fd5b61009c60048036038101906100979190610dcf565b61019a565b6040516100ad959493929190610f25565b60405180910390f35b6100d060048036038101906100cb9190610f86565b6102fa565b005b6100ec60048036038101906100e79190610fb3565b6104ad565b6040516100f99190611187565b60405180910390f35b61011c60048036038101906101179190611303565b610789565b005b61013860048036038101906101339190610dcf565b6109b0565b60405161014591906113b6565b60405180910390f35b610168600480360381019061016391906113d1565b6109e1565b005b610184600480360381019061017f9190610fb3565b610c28565b60405161019191906113b6565b60405180910390f35b6000602052816000526040600020602052806000526040600020600091509150508060000180546101ca906114c5565b80601f01602080910402602001604051908101604052809291908181526020018280546101f6906114c5565b80156102435780601f1061021857610100808354040283529160200191610243565b820191906000526020600020905b81548152906001019060200180831161022657829003601f168201915b505050505090806001018054610258906114c5565b80601f0160208091040260200160405190810160405280929190818152602001828054610284906114c5565b80156102d15780601f106102a6576101008083540402835291602001916102d1565b820191906000526020600020905b8154815290600101906020018083116102b457829003601f168201915b5050505050908060020154908060030154908060040160009054906101000a900460ff16905085565b600160003373ffffffffffffffffffffffffffffffffffffffff1673ffffffffffffffffffffffffffffffffffffffff16815260200190815260200160002054811461037b576040517f08c379a000000000000000000000000000000000000000000000000000000000815260040161037290611542565b60405180910390fd5b6000803373ffffffffffffffffffffffffffffffffffffffff1673ffffffffffffffffffffffffffffffffffffffff1681526020019081526020016000206000828152602001908152602001600020600080820160006103db9190610c89565b6001820160006103eb9190610c89565b600282016000905560038201600090556004820160006101000a81549060ff02191690555050600160003373ffffffffffffffffffffffffffffffffffffffff1673ffffffffffffffffffffffffffffffffffffffff168152602001908152602001600020600081548092919061046190611591565b9190505550803373ffffffffffffffffffffffffffffffffffffffff167f24d84cd6bd5cc33dafa556a214e7d9e1b4fccca98b3e7d1413909e4710f02ff360405160405180910390a350565b60606000600260008473ffffffffffffffffffffffffffffffffffffffff1673ffffffffffffffffffffffffffffffffffffffff16815260200190815260200160002090506000818054905067ffffffffffffffff811115610512576105116111b3565b5b60405190808252806020026020018201604052801561054b57816020015b610538610cc9565b8152602001906001900390816105305790505b50905060005b828054905081101561077e576000838281548110610572576105716115ba565b5b906000526020600020015490506000803373ffffffffffffffffffffffffffffffffffffffff1673ffffffffffffffffffffffffffffffffffffffff16815260200190815260200160002060008281526020019081526020016000206040518060a00160405290816000820180546105e9906114c5565b80601f0160208091040260200160405190810160405280929190818152602001828054610615906114c5565b80156106625780601f1061063757610100808354040283529160200191610662565b820191906000526020600020905b81548152906001019060200180831161064557829003601f168201915b5050505050815260200160018201805461067b906114c5565b80601f01602080910402602001604051908101604052809291908181526020018280546106a7906114c5565b80156106f45780601f106106c9576101008083540402835291602001916106f4565b820191906000526020600020905b8154815290600101906020018083116106d757829003601f168201915b5050505050815260200160028201548152602001600382015481526020016004820160009054906101000a900460ff16600281111561073657610735610eae565b5b600281111561074857610747610eae565b5b8152505083838151811061075f5761075e6115ba565b5b6020026020010181905250508080610776906115e9565b915050610551565b508092505050919050565b6000610799338787878787610c40565b90506040518060a001604052808781526020018681526020018581526020018481526020018360028111156107d1576107d0610eae565b5b8152506000803373ffffffffffffffffffffffffffffffffffffffff1673ffffffffffffffffffffffffffffffffffffffff1681526020019081526020016000206000838152602001908152602001600020600082015181600001908161083891906117dd565b50602082015181600101908161084e91906117dd565b50604082015181600201556060820151816003015560808201518160040160006101000a81548160ff0219169083600281111561088e5761088d610eae565b5b0217905550905050600160003373ffffffffffffffffffffffffffffffffffffffff1673ffffffffffffffffffffffffffffffffffffffff16815260200190815260200160002060008154809291906108e6906115e9565b9190505550803373ffffffffffffffffffffffffffffffffffffffff167ffbab56ff7d8179d8b15cae11ed4dbcad2c8f87d13ea6690772dc5742e47d0d16888888888860405161093a959493929190610f25565b60405180910390a3600260003373ffffffffffffffffffffffffffffffffffffffff1673ffffffffffffffffffffffffffffffffffffffff168152602001908152602001600020819080600181540180825580915050600190039060005260206000200160009091909190915055505050505050565b600260205281600052604060002081815481106109cc57600080fd5b90600052602060002001600091509150505481565b846000803373ffffffffffffffffffffffffffffffffffffffff1673ffffffffffffffffffffffffffffffffffffffff16815260200190815260200160002060008881526020019081526020016000206000019081610a4091906117dd565b50836000803373ffffffffffffffffffffffffffffffffffffffff1673ffffffffffffffffffffffffffffffffffffffff16815260200190815260200160002060008881526020019081526020016000206001019081610aa091906117dd565b50826000803373ffffffffffffffffffffffffffffffffffffffff1673ffffffffffffffffffffffffffffffffffffffff168152602001908152602001600020600088815260200190815260200160002060020181905550816000803373ffffffffffffffffffffffffffffffffffffffff1673ffffffffffffffffffffffffffffffffffffffff168152602001908152602001600020600088815260200190815260200160002060030181905550806000803373ffffffffffffffffffffffffffffffffffffffff1673ffffffffffffffffffffffffffffffffffffffff168152602001908152602001600020600088815260200190815260200160002060040160006101000a81548160ff02191690836002811115610bc457610bc3610eae565b5b0217905550853373ffffffffffffffffffffffffffffffffffffffff167fed9f180174725c8888bb904b6645cecc9b0c5b2eadbd8e0675c57e3aeac3d2798787878787604051610c18959493929190610f25565b60405180910390a3505050505050565b60016020528060005260406000206000915090505481565b60008087878787878742604051602001610c60979695949392919061198a565b6040516020818303038152906040528051906020012090508060001c9150509695505050505050565b508054610c95906114c5565b6000825580601f10610ca75750610cc6565b601f016020900490600052602060002090810190610cc59190610d0a565b5b50565b6040518060a001604052806060815260200160608152602001600081526020016000815260200160006002811115610d0457610d03610eae565b5b81525090565b5b80821115610d23576000816000905550600101610d0b565b5090565b6000604051905090565b600080fd5b600080fd5b600073ffffffffffffffffffffffffffffffffffffffff82169050919050565b6000610d6682610d3b565b9050919050565b610d7681610d5b565b8114610d8157600080fd5b50565b600081359050610d9381610d6d565b92915050565b6000819050919050565b610dac81610d99565b8114610db757600080fd5b50565b600081359050610dc981610da3565b92915050565b60008060408385031215610de657610de5610d31565b5b6000610df485828601610d84565b9250506020610e0585828601610dba565b9150509250929050565b600081519050919050565b600082825260208201905092915050565b60005b83811015610e49578082015181840152602081019050610e2e565b60008484015250505050565b6000601f19601f8301169050919050565b6000610e7182610e0f565b610e7b8185610e1a565b9350610e8b818560208601610e2b565b610e9481610e55565b840191505092915050565b610ea881610d99565b82525050565b7f4e487b7100000000000000000000000000000000000000000000000000000000600052602160045260246000fd5b60038110610eee57610eed610eae565b5b50565b6000819050610eff82610edd565b919050565b6000610f0f82610ef1565b9050919050565b610f1f81610f04565b82525050565b600060a0820190508181036000830152610f3f8188610e66565b90508181036020830152610f538187610e66565b9050610f626040830186610e9f565b610f6f6060830185610e9f565b610f7c6080830184610f16565b9695505050505050565b600060208284031215610f9c57610f9b610d31565b5b6000610faa84828501610dba565b91505092915050565b600060208284031215610fc957610fc8610d31565b5b6000610fd784828501610d84565b91505092915050565b600081519050919050565b600082825260208201905092915050565b6000819050602082019050919050565b600082825260208201905092915050565b600061102882610e0f565b611032818561100c565b9350611042818560208601610e2b565b61104b81610e55565b840191505092915050565b61105f81610d99565b82525050565b61106e81610f04565b82525050565b600060a0830160008301518482036000860152611091828261101d565b915050602083015184820360208601526110ab828261101d565b91505060408301516110c06040860182611056565b5060608301516110d36060860182611056565b5060808301516110e66080860182611065565b508091505092915050565b60006110fd8383611074565b905092915050565b6000602082019050919050565b600061111d82610fe0565b6111278185610feb565b93508360208202850161113985610ffc565b8060005b85811015611175578484038952815161115685826110f1565b945061116183611105565b925060208a0199505060018101905061113d565b50829750879550505050505092915050565b600060208201905081810360008301526111a18184611112565b905092915050565b600080fd5b600080fd5b7f4e487b7100000000000000000000000000000000000000000000000000000000600052604160045260246000fd5b6111eb82610e55565b810181811067ffffffffffffffff8211171561120a576112096111b3565b5b80604052505050565b600061121d610d27565b905061122982826111e2565b919050565b600067ffffffffffffffff821115611249576112486111b3565b5b61125282610e55565b9050602081019050919050565b82818337600083830152505050565b600061128161127c8461122e565b611213565b90508281526020810184848401111561129d5761129c6111ae565b5b6112a884828561125f565b509392505050565b600082601f8301126112c5576112c46111a9565b5b81356112d584826020860161126e565b91505092915050565b600381106112eb57600080fd5b50565b6000813590506112fd816112de565b92915050565b600080600080600060a0868803121561131f5761131e610d31565b5b600086013567ffffffffffffffff81111561133d5761133c610d36565b5b611349888289016112b0565b955050602086013567ffffffffffffffff81111561136a57611369610d36565b5b611376888289016112b0565b945050604061138788828901610dba565b935050606061139888828901610dba565b92505060806113a9888289016112ee565b9150509295509295909350565b60006020820190506113cb6000830184610e9f565b92915050565b60008060008060008060c087890312156113ee576113ed610d31565b5b60006113fc89828a01610dba565b965050602087013567ffffffffffffffff81111561141d5761141c610d36565b5b61142989828a016112b0565b955050604087013567ffffffffffffffff81111561144a57611449610d36565b5b61145689828a016112b0565b945050606061146789828a01610dba565b935050608061147889828a01610dba565b92505060a061148989828a016112ee565b9150509295509295509295565b7f4e487b7100000000000000000000000000000000000000000000000000000000600052602260045260246000fd5b600060028204905060018216806114dd57607f821691505b6020821081036114f0576114ef611496565b5b50919050565b7f546f646f20646f6573206e6f7420657869737400000000000000000000000000600082015250565b600061152c601383610e1a565b9150611537826114f6565b602082019050919050565b6000602082019050818103600083015261155b8161151f565b9050919050565b7f4e487b7100000000000000000000000000000000000000000000000000000000600052601160045260246000fd5b600061159c82610d99565b9150600082036115af576115ae611562565b5b600182039050919050565b7f4e487b7100000000000000000000000000000000000000000000000000000000600052603260045260246000fd5b60006115f482610d99565b91507fffffffffffffffffffffffffffffffffffffffffffffffffffffffffffffffff820361162657611625611562565b5b600182019050919050565b60008190508160005260206000209050919050565b60006020601f8301049050919050565b600082821b905092915050565b6000600883026116937fffffffffffffffffffffffffffffffffffffffffffffffffffffffffffffffff82611656565b61169d8683611656565b95508019841693508086168417925050509392505050565b6000819050919050565b60006116da6116d56116d084610d99565b6116b5565b610d99565b9050919050565b6000819050919050565b6116f4836116bf565b611708611700826116e1565b848454611663565b825550505050565b600090565b61171d611710565b6117288184846116eb565b505050565b5b8181101561174c57611741600082611715565b60018101905061172e565b5050565b601f8211156117915761176281611631565b61176b84611646565b8101602085101561177a578190505b61178e61178685611646565b83018261172d565b50505b505050565b600082821c905092915050565b60006117b460001984600802611796565b1980831691505092915050565b60006117cd83836117a3565b9150826002028217905092915050565b6117e682610e0f565b67ffffffffffffffff8111156117ff576117fe6111b3565b5b61180982546114c5565b611814828285611750565b600060209050601f8311600181146118475760008415611835578287015190505b61183f85826117c1565b8655506118a7565b601f19841661185586611631565b60005b8281101561187d57848901518255600182019150602085019450602081019050611858565b8683101561189a5784890151611896601f8916826117a3565b8355505b6001600288020188555050505b505050505050565b60008160601b9050919050565b60006118c7826118af565b9050919050565b60006118d9826118bc565b9050919050565b6118f16118ec82610d5b565b6118ce565b82525050565b600081905092915050565b600061190d82610e0f565b61191781856118f7565b9350611927818560208601610e2b565b80840191505092915050565b6000819050919050565b61194e61194982610d99565b611933565b82525050565b60008160f81b9050919050565b600061196c82611954565b9050919050565b61198461197f82610f04565b611961565b82525050565b6000611996828a6118e0565b6014820191506119a68289611902565b91506119b28288611902565b91506119be828761193d565b6020820191506119ce828661193d565b6020820191506119de8285611973565b6001820191506119ee828461193d565b6020820191508190509897505050505050505056fea2646970667358221220126b36aad698bab3cc892e4f8c6cba6171397972309ebde3beaef798f444af6264736f6c63430008120033",
  "immutableReferences": {},
  "source": "// SPDX-License-Identifier: MIT\r\npragma solidity ^0.8.0;\r\n\r\ncontract TodoList{\r\n\r\n    enum Status{\r\n        todo,\r\n        doing,\r\n        done\r\n    }\r\n\r\n    struct Todo{\r\n        string title;\r\n        string description;\r\n        uint startDate;\r\n        uint endDate;\r\n        Status status;\r\n    }\r\n\r\n   \r\n    mapping(address => mapping(uint256 => Todo)) public todos;\r\n    mapping(address => uint256) public TodoId;\r\n    mapping(address => uint256[]) public getId;\r\n\r\n    \r\n    event TodoCreated(address indexed user, uint256 indexed todoId, string title, string description, uint256 startDate, uint256 endDate, Status status);\r\n    event TodoDeleted(address indexed user,uint256 indexed  todoId);\r\n    event TodoUpdated(address indexed user, uint256 indexed todoId, string title, string description, uint256 startDate,uint256 endDate, Status status);\r\n    \r\n    function generateTodoId(address user, string memory title, string memory description, uint256 startDate, uint256 endDate, Status status) internal view returns (uint256) {\r\n        bytes32 hash = keccak256(abi.encodePacked(user, title, description, startDate, endDate, status, block.timestamp));\r\n        return uint256(hash);\r\n    }\r\n\r\n   \r\n    function createTodo(string memory title, string memory description, uint256 startDate, uint256 endDate, Status status) external {\r\n   \r\n        uint256 newTodoId = generateTodoId(msg.sender, title, description, startDate, endDate, status);\r\n\r\n        todos[msg.sender][newTodoId] = Todo({\r\n            title: title,\r\n            description: description,\r\n            startDate: startDate,\r\n            endDate: endDate,\r\n            status: status\r\n        });\r\n\r\n        TodoId[msg.sender]++;\r\n\r\n        emit TodoCreated(msg.sender, newTodoId, title, description, startDate, endDate, status);\r\n        getId[msg.sender].push(newTodoId);\r\n    }\r\n    \r\n    function deleteTodo(uint256 todoId) external {\r\n        require(todoId == TodoId[msg.sender], \"Todo does not exist\");\r\n\r\n        delete todos[msg.sender][todoId];\r\n        TodoId[msg.sender]--;\r\n\r\n        emit TodoDeleted(msg.sender, todoId);\r\n    }\r\n    \r\n\r\n    function getTodo(address user) external view returns (Todo[] memory) {\r\n        uint256[] storage tokenIDs = getId[user];\r\n        Todo[] memory userTodos = new Todo[](tokenIDs.length);\r\n\r\n        for (uint256 i = 0; i < tokenIDs.length; i++) {\r\n            uint256 tokenID = tokenIDs[i];\r\n            userTodos[i] = todos[msg.sender][tokenID];\r\n        }\r\n\r\n        return userTodos;\r\n    }\r\n\r\n    function updateTodo(uint256 tokenId,string memory title, string memory description, uint startDate, uint endDate, Status status) external {\r\n        \r\n        todos[msg.sender][tokenId].title = title;\r\n        todos[msg.sender][tokenId].description = description;\r\n        todos[msg.sender][tokenId].startDate = startDate;\r\n        todos[msg.sender][tokenId].endDate = endDate;\r\n        todos[msg.sender][tokenId].status = status;\r\n\r\n        emit TodoUpdated(msg.sender, tokenId, title, description, startDate, endDate, status);\r\n    }\r\n   \r\n\r\n}",
  "sourcePath": "C:\\Users\\matilda\\Documents\\ethereum_todo_dapp\\final-Dapp\\truffle\\contracts\\TodoList.sol",
  "compiler": {
    "name": "solc",
    "version": "0.8.18+commit.87f61d96.Emscripten.clang"
  },
  "schemaVersion": "3.4.16",
  "updatedAt": "2024-03-19T00:27:34.918Z",
  "networkType": "ethereum",
  "devdoc": {
    "kind": "dev",
    "methods": {},
    "version": 1
  },
  "userdoc": {
    "kind": "user",
    "methods": {},
    "version": 1
  }
}